{
  "_format": "hh-sol-artifact-1",
  "contractName": "Insta",
  "sourceName": "contracts/Insta.sol",
  "abi": [
    {
      "inputs": [
        {
          "internalType": "address",
          "name": "",
          "type": "address"
        }
      ],
      "name": "ALLPost",
      "outputs": [
        {
          "internalType": "string",
          "name": "text",
          "type": "string"
        },
        {
          "internalType": "string",
          "name": "imageUrl",
          "type": "string"
        },
        {
          "internalType": "address",
          "name": "WhoCreatedPost",
          "type": "address"
        }
      ],
      "stateMutability": "view",
      "type": "function"
    },
    {
      "inputs": [
        {
          "internalType": "address",
          "name": "",
          "type": "address"
        }
      ],
      "name": "ALLUser",
      "outputs": [
        {
          "internalType": "string",
          "name": "name",
          "type": "string"
        }
      ],
      "stateMutability": "view",
      "type": "function"
    },
    {
      "inputs": [],
      "name": "AllPostByEveryone",
      "outputs": [
        {
          "components": [
            {
              "internalType": "string",
              "name": "text",
              "type": "string"
            },
            {
              "internalType": "string",
              "name": "imageUrl",
              "type": "string"
            },
            {
              "internalType": "address",
              "name": "WhoCreatedPost",
              "type": "address"
            }
          ],
          "internalType": "struct Insta.post[]",
          "name": "",
          "type": "tuple[]"
        }
      ],
      "stateMutability": "view",
      "type": "function"
    },
    {
      "inputs": [
        {
          "internalType": "string",
          "name": "_name",
          "type": "string"
        }
      ],
      "name": "CreateUser",
      "outputs": [],
      "stateMutability": "nonpayable",
      "type": "function"
    },
    {
      "inputs": [],
      "name": "allUser",
      "outputs": [
        {
          "components": [
            {
              "internalType": "string",
              "name": "name",
              "type": "string"
            }
          ],
          "internalType": "struct Insta.user[]",
          "name": "",
          "type": "tuple[]"
        }
      ],
      "stateMutability": "view",
      "type": "function"
    },
    {
      "inputs": [
        {
          "internalType": "string",
          "name": "_text",
          "type": "string"
        },
        {
          "internalType": "string",
          "name": "_imageUrl",
          "type": "string"
        }
      ],
      "name": "createPost",
      "outputs": [],
      "stateMutability": "nonpayable",
      "type": "function"
    }
  ],
  "bytecode": "0x608060405234801561001057600080fd5b50610b0a806100206000396000f3fe608060405234801561001057600080fd5b50600436106100625760003560e01c8063327d25a714610067578063392338f5146100855780636b76bd941461009a57806386661262146100ad5780639bad2af0146100c2578063c9b92120146100e4575b600080fd5b61006f610104565b60405161007c91906107d0565b60405180910390f35b61009861009336600461090d565b61029d565b005b6100986100a8366004610971565b6103b1565b6100b561042d565b60405161007c91906109ae565b6100d56100d0366004610a18565b610511565b60405161007c93929190610a48565b6100f76100f2366004610a18565b61064c565b60405161007c9190610a86565b60606002805480602002602001604051908101604052809291908181526020016000905b82821015610294578382906000526020600020906003020160405180606001604052908160008201805461015b90610a99565b80601f016020809104026020016040519081016040528092919081815260200182805461018790610a99565b80156101d45780601f106101a9576101008083540402835291602001916101d4565b820191906000526020600020905b8154815290600101906020018083116101b757829003601f168201915b505050505081526020016001820180546101ed90610a99565b80601f016020809104026020016040519081016040528092919081815260200182805461021990610a99565b80156102665780601f1061023b57610100808354040283529160200191610266565b820191906000526020600020905b81548152906001019060200180831161024957829003601f168201915b5050509183525050600291909101546001600160a01b03166020918201529082526001929092019101610128565b50505050905090565b33600090815260016020908152604090912083516102bd928501906106ea565b5033600090815260016020818152604090922083516102e4939190920191908401906106ea565b50336000818152600160208181526040808420600290810180546001600160a01b0319168717905581516060810183528881528084018890529182019590955284549283018555939092528251805160039092027f405787fa12a823e0f2b7631cc41b3ba8828b3321ca811111fa75cd3aa3bb5ace019261036a928492909101906106ea565b50602082810151805161038392600185019201906106ea565b5060409190910151600290910180546001600160a01b0319166001600160a01b039092169190911790555050565b3360009081526020818152604090912082516103cf928401906106ea565b50604080516020808201909252828152600380546001810182556000919091528151805192937fc2575a0e9e593c00f959f8c92f12db2869c3395a3b0502d05e2516446f71f85b9092019261042792849201906106ea565b50505050565b60606003805480602002602001604051908101604052809291908181526020016000905b828210156102945783829060005260206000200160405180602001604052908160008201805461048090610a99565b80601f01602080910402602001604051908101604052809291908181526020018280546104ac90610a99565b80156104f95780601f106104ce576101008083540402835291602001916104f9565b820191906000526020600020905b8154815290600101906020018083116104dc57829003601f168201915b50505050508152505081526020019060010190610451565b60016020526000908152604090208054819061052c90610a99565b80601f016020809104026020016040519081016040528092919081815260200182805461055890610a99565b80156105a55780601f1061057a576101008083540402835291602001916105a5565b820191906000526020600020905b81548152906001019060200180831161058857829003601f168201915b5050505050908060010180546105ba90610a99565b80601f01602080910402602001604051908101604052809291908181526020018280546105e690610a99565b80156106335780601f1061060857610100808354040283529160200191610633565b820191906000526020600020905b81548152906001019060200180831161061657829003601f168201915b505050600290930154919250506001600160a01b031683565b60006020819052908152604090208054819061066790610a99565b80601f016020809104026020016040519081016040528092919081815260200182805461069390610a99565b80156106e05780601f106106b5576101008083540402835291602001916106e0565b820191906000526020600020905b8154815290600101906020018083116106c357829003601f168201915b5050505050905081565b8280546106f690610a99565b90600052602060002090601f016020900481019282610718576000855561075e565b82601f1061073157805160ff191683800117855561075e565b8280016001018555821561075e579182015b8281111561075e578251825591602001919060010190610743565b5061076a92915061076e565b5090565b5b8082111561076a576000815560010161076f565b6000815180845260005b818110156107a95760208185018101518683018201520161078d565b818111156107bb576000602083870101525b50601f01601f19169290920160200192915050565b60006020808301818452808551808352604092508286019150828160051b87010184880160005b8381101561085c57603f1989840301855281516060815181865261081d82870182610783565b915050888201518582038a8701526108358282610783565b928901516001600160a01b03169589019590955250948701949250908601906001016107f7565b509098975050505050505050565b634e487b7160e01b600052604160045260246000fd5b600082601f83011261089157600080fd5b813567ffffffffffffffff808211156108ac576108ac61086a565b604051601f8301601f19908116603f011681019082821181831017156108d4576108d461086a565b816040528381528660208588010111156108ed57600080fd5b836020870160208301376000602085830101528094505050505092915050565b6000806040838503121561092057600080fd5b823567ffffffffffffffff8082111561093857600080fd5b61094486838701610880565b9350602085013591508082111561095a57600080fd5b5061096785828601610880565b9150509250929050565b60006020828403121561098357600080fd5b813567ffffffffffffffff81111561099a57600080fd5b6109a684828501610880565b949350505050565b6000602080830181845280855180835260408601915060408160051b870101925083870160005b82811015610a0b57878503603f190184528151518686526109f887870182610783565b95505092850192908501906001016109d5565b5092979650505050505050565b600060208284031215610a2a57600080fd5b81356001600160a01b0381168114610a4157600080fd5b9392505050565b606081526000610a5b6060830186610783565b8281036020840152610a6d8186610783565b91505060018060a01b0383166040830152949350505050565b602081526000610a416020830184610783565b600181811c90821680610aad57607f821691505b60208210811415610ace57634e487b7160e01b600052602260045260246000fd5b5091905056fea264697066735822122022463715e1447cdb3d47ffb2308d313efc2cb2a781c5417468581899ff6838c564736f6c63430008090033",
  "linkReferences": {},
  "deployedLinkReferences": {}
}